:100000000C9434000C9449000C9449000C94490061
:100010000C9449000C9449000C9449000C9449003C
:100020000C9449000C9449000C9449000C9449002C
:100030000C9449000C9449000C9449000C9449001C
:100040000C9449000C9449000C9449000C9449000C
:100050000C9449000C9449000C9449000C944900FC
:100060000C9449000C94490011241FBECFEFD8E036
:10007000DEBFCDBF11E0A0E0B1E0EEEFF0E002C0E6
:1000800005900D92AE32B107D9F70E9459000C9439
:100090007D000C9400009C01220F331F220F331FA0
:1000A0002BB956E0959587955A95E1F7837085B9F8
:1000B00008958CEF8AB983E084B912E01BB815B9B2
:1000C0002FEF8BE49DE1215080409040E1F700C08C
:1000D0000000C0E0D1E0899199910E944B002FEF80
:1000E00081EE94E0215080409040E1F700C0000094
:0E00F00021E0CC32D20779F7E1CFF894FFCFB0
:1000FE00080010002000010002000400080010009B
:10010E004000020001002000400004000800100022
:0E011E00400002000100200010000800160042
:00000001FF
