:100000000C9434000C9449000C9449000C94490061
:100010000C9449000C9449000C9449000C9449003C
:100020000C9449000C9449000C9449000C9449002C
:100030000C9449000C9449000C9449000C9449001C
:100040000C9449000C9449000C9449000C9449000C
:100050000C9449000C9449000C9449000C944900FC
:100060000C9449000C94490011241FBECFEFD8E036
:10007000DEBFCDBF11E0A0E0B1E0E0E8FEE002C0ED
:1000800005900D92A038B107D9F70E94E9000C94B1
:100090003E070C940000CF93DF93CDB7DEB7619796
:1000A0000FB6F894DEBF0FBECDBF9B878A877D87D2
:1000B0006C875F874E87398B288B81E090E09A832D
:1000C00089838A859B859C838B831E821D82888978
:1000D0009989FC01118210828E859F85FC01118215
:1000E000108218861F828F81988540970CF067C018
:1000F00029813A818C859D8582239323892BC1F1A7
:1001000088899989FC0180819181892B71F0888986
:100110009989FC01208131818B819C81809590950A
:100120008217930710F481E001C080E089878889F5
:100130009989FC01208131818B819C81280F391F95
:1001400088899989FC01318320838E859F85FC01F4
:10015000208131818D819E81280F391F8985882FCB
:1001600090E0280F391F8E859F85FC013183208305
:100170008B819C81892F881F8827881F89878B8185
:100180009C81880F991F9C838B838D819E81880F12
:10019000991F9E838D838985882329F08D819E8177
:1001A00081609E838D8389819A81880F991F9A83AC
:1001B00089838F819885019698878F8394CF0000DB
:1001C00061960FB6F894DEBF0FBECDBFDF91CF9121
:1001D0000895CF93DF93CDB7DEB72E970FB6F8947F
:1001E000DEBF0FBECDBF40E75DE460E070E0CE0152
:1001F00001960E942D02CE010D9660E070E00E94F3
:10020000EF04CE0101960E941A03DC01CB019C0190
:100210003F77CE010D96B9010E940C05CE010D96D7
:1002200041E068EE73E00E942F05EBCFCF93DF93A0
:10023000CDB7DEB764970FB6F894DEBF0FBECDBF63
:100240009A8B898B7C8B6B8B8B899C89992344F44B
:100250008B899C899195819591099A83898304C0A2
:100260008B899C899A8389839E01295F3F4FAE01C8
:10027000475F5F4F89819A81BC018EE694E30E94BB
:100280004B0089859A85AC01452F552746954695A3
:10029000469520E137E2429FC001439F900D529F57
:1002A000900D112429813A81A901481B590BCA01DB
:1002B0009A8389839E01295F3F4FAE01455F5F4F5F
:1002C00089819A81BC0186EF98E20E944B008B8560
:1002D0009C85929582958F7089279F7089279C872E
:1002E0008B872B853C8544E6429FC001439F900D40
:1002F000112429813A81A901481B590BCA019E8307
:100300008D839E01295F3F4FAE01435F5F4F8D811B
:100310009E81BC018AE999E10E944B008B859C85F6
:100320009E01295F3F4FAE01415F5F4FBC018AE9EB
:1003300099E10E944B008B899C8999232CF48FE0D2
:1003400090E09C838B8304C08F8598899C838B83EA
:100350002D853E85C901880F991F880F991F820F2F
:10036000931F880F991F9C018D819E81821B930B87
:100370009C01322F22273295307F8D859E85982FC4
:100380008827A901482B592B6B857C852F853889B7
:10039000C901880F991F880F991F820F931F880F1B
:1003A000991F9B01281B390BC90182959295907F5B
:1003B0009827807F98279A01282B392B8B819C8145
:1003C000822B932B64960FB6F894DEBF0FBECDBF81
:1003D000DF91CF910895CF93DF9300D000D0CDB7B8
:1003E000DEB79A8389837C836B832B813C818981EF
:1003F0009A81B9010E9416019C0189819A81FC01B0
:100400003183208300000F900F900F900F90DF91A9
:10041000CF910895CF93DF9300D000D0CDB7DEB752
:100420009B838A836C838C818370880F880F898378
:100430008A819B81FC01808191812981222F30E07A
:1004400002C0969587952A95E2F78F700F900F90CE
:100450000F900F90DF91CF910895CF93DF93CDB799
:10046000DEB72A970FB6F894DEBF0FBECDBF9E83CE
:100470008D834F83588769877A872D813E8181E0FC
:1004800090E0A0E0B0E0F90180839183A283B38380
:100490001A82198289819A8140970CF03FC081E0CD
:1004A00090E0098002C0880F991F0A94E2F79C012E
:1004B000990F440B550B8F819885A985BA858223A6
:1004C0009323A423B523892B8A2B8B2B09F18D81B0
:1004D0009E81FC01208131814281538189819A81F1
:1004E000880F991F880F991F80509F4FFC018081B2
:1004F0009181A281B381BC01CD010E94F305DC0191
:10050000CB012D813E81F90180839183A283B38346
:1005100089819A8101969A838983BCCF2D813E81FE
:1005200082E090E0A0E0B0E0F90184839583A683A7
:10053000B7838F819885A985BA8580959095A09578
:10054000B095689414F8B695A795979587951694E5
:10055000D1F70197AF4FBF4F8F839887A987BA878D
:1005600080E190E09C838B838B819C8180970CF051
:100570003FC081E090E00B8002C0880F991F0A9471
:10058000E2F79C01990F440B550B8F819885A98543
:10059000BA8582239323A423B523892B8A2B8B2B03
:1005A00009F18D819E81FC0124813581468157812D
:1005B0008B819C81880F991F880F991F80509F4FB6
:1005C000FC0180819181A281B381BC01CD010E9497
:1005D000F305DC01CB012D813E81F90184839583F4
:1005E000A683B7838B819C8101969C838B83BCCF30
:1005F0008D819E81FC0184819581A681B7810196C0
:10060000A11DB11D2D813E81F90184839583A683AF
:10061000B7838D819E81FC01108611861286138618
:1006200000002A960FB6F894DEBF0FBECDBFDF9153
:10063000CF910895CF93DF9300D0CDB7DEB79A83E3
:10064000898389819A81FC01248135814681578182
:1006500089819A81FC0180859185A285B385BC0141
:10066000CD010E94F3059B01AC0189819A81FC01B7
:1006700080819181A281B381820F931FA41FB51F36
:1006800029813A81F90180879187A287B38789817F
:100690009A81FC0180859185A285B385BC01CD013D
:1006A0000F900F90DF91CF910895CF93DF9300D0FB
:1006B00000D0CDB7DEB79A8389837C836B838B812F
:1006C0009C819C01332789819A81FC01318320839D
:1006D00000000F900F900F900F90DF91CF91089531
:1006E000CF93DF9300D0CDB7DEB79A83898389811A
:1006F0009A81FC018081918143E4489F9001499F48
:10070000300D112488E890E0FC013183208381E8DA
:1007100090E02DE0FC01208300000F900F90DF910E
:10072000CF910895CF93DF9300D0CDB7DEB79A83F2
:10073000898386E390E0FC018081882F90E08270BD
:10074000992721E0892B09F020E0822F0F900F904C
:10075000DF91CF910895CF93DF9300D0CDB7DEB76F
:100760009A83898386E390E0FC01208186E390E010
:100770002260FC01208300000F900F90DF91CF9149
:100780000895CF93DF9300D01F92CDB7DEB79A8341
:1007900089836B838B81882F90E0092E000CAA0B34
:1007A000BB0B80319105A105B10558F585529C4FD1
:1007B000FC010C940306EB03ED03EF03F103F303D9
:1007C000F503F703F903FB03FD030104010401042E
:1007D00001040104FF038FE315C086E013C08BE51D
:1007E00011C08FE40FC086E60DC08DE60BC08DE70B
:1007F00009C087E007C08FE705C08FE603C080E42B
:1008000001C080E00F900F900F90DF91CF9108957D
:10081000CF93DF93CDB7DEB762970FB6F894DEBF04
:100820000FBECDBF988B8F87698B4A8B8989882FA4
:1008300090E09C01220F331F220F331F8BE290E0C8
:10084000FC01208385E290E0298922952695269552
:100850002370FC01208385E290E0FC018081482F19
:100860008A89282F30E081E090E002C0880F991F2C
:100870002A95E2F7880F991F880F991F982F8CE30C
:100880008927242F282B85E290E0FC01208380E03B
:1008900090E0A0ECB0E489839A83AB83BC8320E032
:1008A00030E04AE755E469817A818B819C810E941E
:1008B000A906DC01CB018D839E83AF83B88720E03E
:1008C00030E040E85FE36D817E818F8198850E94F2
:1008D000230688232CF481E090E09A8789873EC024
:1008E00020E03FEF4FE757E46D817E818F8198854F
:1008F0000E94A406181644F520E030E040E251E4DE
:1009000069817A818B819C810E94A906DC01CB01DF
:10091000BC01CD010E942806DC01CB019A878987A2
:1009200089859A85892B21F180E991E09C878B87C5
:100930008B859C850197F1F79C878B8789859A85A4
:1009400001979A878987ECCF6D817E818F81988509
:100950000E942806DC01CB019A87898789859A85C0
:100960009E878D878D859E850197F1F79E878D8760
:10097000000062960FB6F894DEBF0FBECDBFDF91C8
:10098000CF910895CF93DF9300D0CDB7DEB79A8390
:1009900089838AE290E02CEFFC01208384E290E0DE
:1009A0002FE3FC01208300000F900F90DF91CF9187
:1009B0000895CF93DF9300D0CDB7DEB79A838983B4
:1009C00085E290E0FC01208185E290E02C63FC014F
:1009D000208300000F900F90DF91CF910895CF9367
:1009E000DF9300D000D0CDB7DEB79A8389837C83B4
:1009F0006B8389819A812B813C81B9010E94EB0133
:100A000089819A810E94C20400000F900F900F907C
:100A10000F90DF91CF910895CF93DF9300D000D056
:100A200000D0CDB7DEB79C838B837E836D838D81B1
:100A30009E81BC01CE0101960E94EB018B819C81BD
:100A400029813A81FC0131832083000026960FB66C
:100A5000F894DEBF0FBECDBFDF91CF9108951F93F5
:100A6000CF93DF93CDB7DEB72B970FB6F894DEBFE9
:100A70000FBECDBF98878F837A8769874B8729857B
:100A80003A85CE010596B9010E945503CE0105961F
:100A90000E9470038B85882309F442C01A82198250
:100AA0008F8198852981622F0E940A02882331F460
:100AB00089819A81039714F481E001C080E0882342
:100AC00031F089819A8101969A838983E9CFCE0199
:100AD00005960E949203882309F472C089819A8145
:100AE0009C838B838B819C8104978CF71B818F81E6
:100AF00098852B81622F0E940A02282F8F8198856A
:100B0000622F0E94C103282F8F819885412F622F69
:100B10000E9408048B819C8101969C838B83E2CF89
:100B2000CE0105960E949203882309F449C08F8163
:100B3000988560E00E940A02282F8F819885622F95
:100B40000E94C103282F8F81988540E0622F0E9468
:100B500008048F81988561E00E940A02282F8F8106
:100B60009885622F0E94C103282F8F81988541E0CC
:100B7000622F0E9408048F81988562E00E940A0219
:100B8000282F8F819885622F0E94C103282F8F8183
:100B9000988542E0622F0E9408048F81988563E067
:100BA0000E940A02282F8F819885622F0E94C1031C
:100BB000282F8F81988543E0622F0E940804B0CFD0
:100BC000CE0105960E94AB038F8198850E94D904BF
:100BD00000002B960FB6F894DEBF0FBECDBFDF919D
:100BE000CF911F910895DB018F939F930E94090677
:100BF000BF91AF91A29F800D911DA39F900DB29FB9
:100C0000900D11240895EE0FFF1F0590F491E02D33
:100C100009940E941406A59F900DB49F900DA49F67
:100C2000800D911D11240895A29FB001B39FC001B2
:100C3000A39F700D811D1124911DB29F700D811D08
:100C40001124911D08950E94570608F481E008952B
:100C50000E94830688F09F5798F0B92F9927B751C3
:100C6000B0F0E1F0660F771F881F991F1AF0BA9550
:100C7000C9F714C0B13091F00E949D06B1E008950B
:100C80000C949D06672F782F8827B85F39F0B93FFD
:100C9000CCF3869577956795B395D9F73EF4909503
:100CA0008095709561957F4F8F4F9F4F0895990F55
:100CB0000008550FAA0BE0E8FEEF16161706E80726
:100CC000F907C0F012161306E407F50798F0621B47
:100CD000730B840B950B39F40A2661F0232B242B1C
:100CE000252B21F408950A2609F4A140A6958FEF3B
:100CF000811D811D089557FD9058440F551F59F0CF
:100D00005F3F71F04795880F97FB991F61F09F3FF8
:100D100079F087950895121613061406551FF2CF21
:100D20004695F1DF08C0161617061806991FF1CF71
:100D300086957105610508940895E894BB27662798
:100D40007727CB0197F908950E94570608F48FEF93
:100D500008950E94BC060C942D070E941F0738F0CE
:100D60000E94260720F0952311F00C9416070C948E
:100D70001C0711240C949E060E947B0670F3959F1D
:100D8000C1F3950F50E0551F629FF001729FBB2782
:100D9000F00DB11D639FAA27F00DB11DAA1F649F1E
:100DA0006627B00DA11D661F829F2227B00DA11DD1
:100DB000621F739FB00DA11D621F839FA00D611D57
:100DC000221F749F3327A00D611D231F849F600D78
:100DD000211D822F762F6A2F11249F5750409AF0A1
:100DE000F1F088234AF0EE0FFF1FBB1F661F771F2D
:100DF000881F91505040A9F79E3F510580F00C94F8
:100E000016070C949E065F3FE4F3983ED4F3869554
:100E100077956795B795F795E7959F5FC1F7FE2B97
:100E2000880F911D9695879597F9089597F99F6773
:100E300080E870E060E008959FEF80EC0895002462
:100E40000A941616170618060906089500240A942F
:100E500012161306140605060895092E0394000CB5
:100E600011F4882352F0BB0F40F4BF2B11F460FF44
:100E700004C06F5F7F4F8F4F9F4F0895F894FFCF4F
:100E800013000000FF1F000051010000AF0100002F
:100E90005900000001010000110B00006101000079
:100EA00029120000A1020000C1000000C1010000E1
:100EB000AD26000061000000F106000041080000BE
:100EC0000100010071000000B9030000AB02000046
:100ED00029050000CD66000033910000F5030000F5
:100EE000790600004F040000373400002B15000085
:100EF0009505000079510000F10000006500000038
:00000001FF
